:020000040800F2
:1000000030810724670500089D1100089F11000832
:10001000A1110008A3110008A511000800000000AC
:10002000000000000000000000000000FB030008CA
:10003000A711000800000000FF030008A911000834
:100040000304000805040008070400080904000868
:100050000B0400080D0400080F0400081104000838
:10006000130400081504000817040008AD11000867
:10007000B9110008C5110008D1110008DD110008F0
:10008000E9110008F5110008270400080112000812
:100090000D120008191200081D1200083104000892
:1000A0003304000835040008370400083904000848
:1000B0003B0400083D0400083F040008211200082A
:1000C0002D120008450400084704000839120008F2
:1000D00045120008511200085D120008691200085C
:1000E00053040008550400080000000057040008ED
:1000F000751200085B0400085D0400088112000806
:100100006104000863040008551300086704000830
:100110008D1200086B0400086D0400086F040008CD
:1001200099120008A5120008B1120008BD120008BB
:10013000C91200087B0400087D0400087F04000841
:1001400000000000000000000000000000000000AF
:10015000D5120008E1120008ED120008F91200089B
:10016000890400088B0400088D0400088F0400082F
:1001700091040008930400089504000800000000A2
:1001800097040008990400080513000811130008DB
:100190001D130008A1040008A3040008A50400081A
:1001A000A7040008A9040008AB040008AD04000877
:1001B000AF040008B1040008B3040008B504000847
:1001C000B7040008B9040008291300083513000813
:1001D000BF04000839130008C3040008C504000860
:1001E000C7040008C9040008CB040008CD040008B7
:1001F000CF040008D1040008D3040008D504000887
:10020000D7040008D9040008DB040008DD04000856
:10021000DF040008E1040008E3040008E504000826
:10022000E7040008E9040008EB04000800000000EF
:10023000ED0400083D13000800000000F104000870
:10024000F3040008F5040008F7040008F9040008A6
:10025000FB040008FD040008FF0400080105000875
:100260000305000805050008070500080905000842
:100270000B0500080D0500080F0500080000000030
:100280001105000800000000130500080000000030
:08029000000000001505000844
:10029800354936480A1A02D0072291438D46344917
:1002A80034480A1A06D00722914381F309880222AA
:1002B80082F3148830483149314A00F043F8314814
:1002C8003149324A00F03EF831483249324A00F0AA
:1002D80039F832483249334A00F034F83248334961
:1002E800334A00F02FF833483349344A00F02AF8EB
:1002F80033483449344A00F025F834483449002258
:1003080000F02BF833483449002200F026F833482F
:100318003349091A082903DB00220260043001600E
:100328001F482049884205D00268043003B490472A
:1003380003BCF7E700208646EC4600200021294A46
:100348009047FEE7884207D0521A05D0037801305B
:100358000B700131013AF9D17047884202D002701E
:100368000130FAE77047000030810724000C0724A9
:100378003081072430810724740701080000002415
:1003880064010024780500087805000868FB000867
:10039800D8080108308107243081072468FB000849
:1003A80068FB000868FB000868FB000868FB000899
:1003B80068FB000868FB000868FB0008F8000108F3
:1003C800D8080108348107243481072464010024F3
:1003D800302E00243081072434810724302E002455
:1003E800000C07247D350008FEE7FEE7FEE7FEE780
:1003F800FEE7FEE7FEE7FEE7FEE7FEE7FEE7FEE7CD
:10040800FEE7FEE7FEE7FEE7FEE7FEE7FEE7FEE7BC
:10041800FEE7FEE7FEE7FEE7FEE7FEE7FEE7FEE7AC
:10042800FEE7FEE7FEE7FEE7FEE7FEE7FEE7FEE79C
:10043800FEE7FEE7FEE7FEE7FEE7FEE7FEE7FEE78C
:10044800FEE7FEE7FEE7FEE7FEE7FEE7FEE7FEE77C
:10045800FEE7FEE7FEE7FEE7FEE7FEE7FEE7FEE76C
:10046800FEE7FEE7FEE7FEE7FEE7FEE7FEE7FEE75C
:10047800FEE7FEE7FEE7FEE7FEE7FEE7FEE7FEE74C
:10048800FEE7FEE7FEE7FEE7FEE7FEE7FEE7FEE73C
:10049800FEE7FEE7FEE7FEE7FEE7FEE7FEE7FEE72C
:1004A800FEE7FEE7FEE7FEE7FEE7FEE7FEE7FEE71C
:1004B800FEE7FEE7FEE7FEE7FEE7FEE7FEE7FEE70C
:1004C800FEE7FEE7FEE7FEE7FEE7FEE7FEE7FEE7FC
:1004D800FEE7FEE7FEE7FEE7FEE7FEE7FEE7FEE7EC
:1004E800FEE7FEE7FEE7FEE7FEE7FEE7FEE7FEE7DC
:1004F800FEE7FEE7FEE7FEE7FEE7FEE7FEE7FEE7CC
:10050800FEE7FEE7FEE7FEE7FEE7FEE7FEE7154843
:10051800854600F061FC4EF68850CEF20000016876
:1005280051F470010160BFF36F8FBFF34F8FF1EE8D
:10053800100A50F04070E1EE100A4FF0000080F30E
:1005480014884EF63C71CEF20001086850F04070F5
:100558000860054805490160FFF79ABE7047FFF734
:10056800D6BF00000000022008ED00E000000008EF
:1005780000487047288107247047704770477047C4
:10058800FEE7FEE7D0F818321BB10020C3F81402CA
:10059800704702207047D0F81C3210B56BB1D0F804
:1005A800184294F80002FF2807D09B68214694F867
:1005B80001229847FF2384F80032002010BD000074
:1005C80043230380004870473800002443230380F6
:1005D800004870477C00002443230380004870478C
:1005E800CC0000240A23038000487047C000002480
:1005F80038B50546D0F8184200F082FDD5F8183213
:10060800C4F80C024BB1D5F81C3204F50371D4F8C8
:100618000402DB689847002038BD0220FCE7000090
:10062800F8B50F7806460C4617F0600323D0202B48
:1006380019D1CA884B78C2B13906D0F818520BD5EF
:10064800D0F81C1218468F682946B847E288294610
:10065800304600F0A4F806E085F80032294685F80F
:10066800012200F0B1F80020F8BDD0F81C0284681F
:100678001846A047F7E74B780A2BF4D10122014925
:10068800E7E700BF6401002410B50446812100F0AB
:10069800CFFC0121204600F0CBFC8221204600F04F
:1006A800C7FCD4F8183253B1D4F81C325B689847A9
:1006B800D4F818020CF072FE0023C4F81832002097
:1006C80010BDF8B5037C04467BBB4FF400730222CF
:1006D800812100F09DFC4FF4007302220121204685
:1006E80000F096FC082303228221204600F090FCAB
:1006F8004FF407700CF008FE0646C4F8180220B341
:10070800D4F81C3200251B689847277CC6F8145279
:10071800C6F8185287B94FF40073D6F8042201219D
:10072800204600F0DFFC3846F8BD40230222812134
:1007380000F06EFC4023D0E74023D6F804220121C4
:10074800204600F0CFFC2846EEE70120ECE719B17F
:10075800C0F81C120020704702207047D0F81832E9
:100768000020C3F80812C3F810227047D0F81832D6
:100778000020C3F804127047D0F8182210B562B1EF
:10078800047CD2F8042234B94FF40073012100F03C
:10079800A9FC002010BD4023F8E70220FAE7134621
:1007A800022210B5C0F8F4210A460021C0E9063338
:1007B80000F08AFC002010BD08B513460A46002147
:1007C80000F082FC002008BD1346032210B5C0F8D3
:1007D800F4210A46C0F808310021C0F80C3100F0B5
:1007E80081FC002010BD08B513460A46002100F020
:1007F80079FC002008BD08B50423C0F8F4310023B3
:100808001A46194600F060FC002008BD08B505230B
:10081800C0F8F43100231A46194600F063FC0020A2
:1008280008BD10B50446802100F010FC00212046C8
:10083800BDE8104000F00ABC37B54B7804460D46B9
:10084800092B76D8DFE813F0C900E5007500D90058
:1008580075006D000A007500B9008D004B881A0AF2
:10086800013A062A65D8DFE802F0041C29646449C5
:100878005200D0F810321B680DF10601207C984711
:10088800BDF80620002A67D0EB88002B64D09A4276
:10089800014628BF1A46ADF806202046FFF77FFF1D
:1008A8005AE0027CD0F8143232B99B6A0DF1060086
:1008B800984702234370E3E7DB6AF7E7DBB2052BCF
:1008C80037D8DFE803F003070B0F1317D0F81032FF
:1008D8005B68D1E7D0F810329B68CDE7D0F81032CA
:1008E800DB68C9E7D0F810321B69C5E7D0F81032C9
:1008F8005B69C1E7D0F810329B69BDE7037CC3B9D7
:10090800D0F814320DF106005B6B9847B8E7037C0A
:100918007BB9D0F814320DF106001B6B98470723FA
:10092800C8E78B882BB9CB881BB990F8FC31032B0F
:1009380003D12046FFF775FF0EE08D7805F07F059F
:1009480080F8FE51294600F0B1FB2046FFF753FF1F
:100958002DB1022384F8FC31002003B030BD0123FF
:10096800F8E78978304D01292970E2D890F8FC31F0
:10097800022B0CD0032BDCD1B1B90223416080F8E3
:10098800FC3100F026F92046FFF735FFE4E700299F
:10099800F9D001210323416080F8FC31204600F0A2
:1009A8000DF90228EFD1C4E741680129EBD0C9B29B
:1009B80000F00FF929786160F0E7CA88012AB8D1F8
:1009C80090F8FC31022B03D0032BB2D1011D64E750
:1009D8000146002341F8083F5FE790F8FC31023BED
:1009E800012BA6D80123C360D0F804320BB103232E
:1009F800C360022204F10C014FE74B88012BABD1F5
:100A0800C4F804322946D4F8143220469B68984723
:100A1800B9E790F8FC31023B012B8AD84B88012BAF
:100A28009AD10023ECE700BF6501002438B590F89F
:100A3800FC3104460D46032B0DD10B79012B0AD846
:100A4800D0F814329B689847EB8813B92046FFF713
:100A5800D2FE002038BDFFF7E4FEFAE738B50B7880
:100A680004460D4603F06003202B05D1D0F814325C
:100A78009B689847002038BD6A788B88012AD9B2CC
:100A88001CD029D3032AF5D190F8FC31022B3DD094
:100A9800032B03D02046FFF7C4FEEBE76B881BB996
:100AA8004A0601D000F0D2FAD4F81432294620467A
:100AB8009B6898472046FFF79EFEDBE790F8FC31DD
:100AC800022B23D0032BE5D16B88002BD2D14B0608
:100AD800F0D000F0C9FAE7E790F8FC21022A15D017
:100AE800032AD7D101F07F051B0600EB05154CBF83
:100AF800143505F5827500F0C5FA60B101232B6045
:100B0800022229462046FFF74AFEB3E74A06B1D03B
:100B180000F09CFAAEE72860F2E70B7803704B7898
:100B28004370CA788B7803EB022343804A790B79A8
:100B380003EB02238380CA798B7903EB0223C380FA
:100B4800704730B588B105462B1A15F8014BDBB252
:100B5800002CF9D1013301385B0013800B7003239B
:100B68004B70022310F8015F05B930BD5A1CCD54F3
:100B78000233D2B2DBB28C54F4E708B580B1D0F8B6
:100B8800143213B10023C0F8143209B1C0F810129E
:100B98000123027080F8FC3100F0F4F9002008BD50
:100BA8000220FCE719B1C0F8141200207047022097
:100BB800704708B500F01EFA002008BD08B5D0F847
:100BC80014320BB9022008BD1B6898470028FAD0D8
:100BD800F8E708B5D0F814325B689847002008BDDC
:100BE80038B500F5027504462846FFF796FF01233D
:100BF80094F80812C4F8F431B4F80E32C4F8F83195
:100C080001F01F03012B0ED007D3022B10D001F0E7
:100C18008001204600F01AFA03E029462046FFF733
:100C28000BFE002038BD29462046FFF7FFFEF8E7F7
:100C380029462046FFF712FFF3E738B50446154664
:100C480011BBD0F8F431032B0FD1D0F80C31D0F808
:100C5800102193420BD99B1A29469A42C0F80C31AD
:100C680028BF1A4692B2FFF7BEFD002038BDD0F863
:100C780014321B6923B190F8FC21032A00D198474C
:100C88002046FFF7B8FDF0E7D0F814329B69002B37
:100C9800EBD090F8FC21032AE7D19847E5E770B537
:100CA800134604460E4600293DD1D0F8F421022A05
:100CB8000FD1D0E90752954214D9AA1A1946C26130
:100CC80092B2FFF779FD33461A461946204600F0DE
:100CD80009FA94F80032012B02D1002384F800327B
:100CE800002070BD8369B3FBF2F502FB153565B9C9
:100CF8009A420AD8D0F8F821934206D22A46FFF73A
:100D08005BFDC4F8F8512B46DEE7D4F81432DB68F3
:100D18002BB194F8FC21032A01D12046984720469C
:100D2800FFF774FDD5E7D0F814325B69002BD7D0F4
:100D380090F8FC21032AD3D19847D1E7002238B58F
:100D4800044640251146402300F062F92B46C4F8BA
:100D5800105100228021204600F05AF90123256213
:100D680084F8FC31D4F818322BB1D4F81432204668
:100D780021795B689847002038BD017400207047CE
:100D880090F8FC3180F8FD31042380F8FC31002014
:100D9800704790F8FD3180F8FC310020704708B5A5
:100DA80090F8FC21032A04D1D0F81432DB6903B18E
:100DB8009847002008BD0020704700207047002099
:100DC80070470122017908B580F8FC21D0F8142277
:100DD80052689047002008BD14491548D1F888305A
:100DE80043F4700310B5C1F88830124B1A6842F00A
:100DF80001021A6000221A611C68204018609A617A
:100E0800DA611A629A62DA621A635A639A63DA6377
:100E18001A645A64186820F4802018601A6601223F
:100E2800054B1A604FF000638B6010BD00ED00E0C9
:100E38007FEDF6EA00440258088100510268224B0F
:100E48009A4210B586B03CD100244FF4007301A932
:100E58001E480394CDE9013408F006F94FF4C05256
:100E68000223032119480394CDE901230A23CDE97C
:100E7800041301A908F0F8F8154B07216220D3F8EC
:100E8800D82042F00062C3F8D8202246D3F8D830E0
:100E980003F000630093009B08F0E8F9622008F073
:100EA80017FA22460721632008F0E0F9632008F0CA
:100EB8000FFA65202246072108F0D8F9652008F0C6
:100EC80007FA06B010BD00BF000008400000025835
:100ED8000044025800F56F71D0F8FC03FFF780BE9C
:100EE8001C2303FB0103D0F8FC03D3F80422FFF70B
:100EF800A4BE1C2303FB0103D0F8FC035A6CFFF7C4
:100F0800CEBED0F8FC03FFF74ABFC168003110B568
:100F1800044618BF0121D0F8FC03FFF72EFFD4F8D0
:100F2800FC03BDE81040FFF709BF000010B50446F8
:100F3800D0F8FC03FFF724FF2268D2F8003E43F004
:100F48000103C2F8003E236A23B1034A136943F040
:100F58000603136110BD00BF00ED00E0D0F8FC03EC
:100F6800FFF717BFD0F8FC03FFF727BFD0F8FC0343
:100F7800FFF721BFD0F8FC03FFF721BFD0F8FC032F
:100F8800FFF71FBF08B502785ABB174B0921C3F8F2
:100F9800FC03C0F8203215489A62C3E90001022117
:100FA8001846C3E90312C3E905210121C3E9072251
:100FB8005962C3E90B2207F03FFB20B14FF4AD7132
:100FC8000B4801F013FE8021074803F0F0FA402295
:100FD8000021054803F0CCFA80220121024803F0E1
:100FE800C7FA002008BD00BF6801002400000840BF
:100FF8007CFB000808B5D0F8200207F095FB032811
:1010080096BF024B0220185C08BD00BF78FB0008A1
:1010180010B51C46D0F820021346224607F0ACFE55
:10102800032896BF014B0220185C10BD78FB00080E
:1010380008B5D0F8200207F0CDFE032896BF024B72
:101048000220185C08BD00BF78FB000808B5D0F87E
:10105800200207F02EFF032896BF024B0220185CDF
:1010680008BD00BF78FB000808B5D0F8200207F0DB
:101078004DFF032896BF024B0220185C08BD00BF35
:1010880078FB000811F0800FD0F820324FF01C02D6
:1010980017BF01F07F0102FB013102FB013191F81A
:1010A8003A0008BF91F8FA017047000008B5D0F877
:1010B800200207F04FFE032896BF024B0220185C5F
:1010C80008BD00BF78FB000808B5D0F8200207F07B
:1010D800D0FE032896BF024B0220185C08BD00BF53
:1010E80078FB000808B5D0F8200207F096FE032820
:1010F80096BF024B0220185C08BD00BF78FB0008B1
:1011080008B5D0F8200207F0ACFE08BD10B50A4CAF
:1011180000220A492046FFF730FD09492046FFF71B
:1011280041FD08492046FFF712FB2046FFF741FD25
:10113800BDE8104004F07ABA6805002428010024AC
:101148000000002418010024002070470020704788
:1011580010B5054C01462046FFF708FB2046FFF76F
:101168000BFB002010BD00BF6805002410B5064C1D
:10117800002206492046FFF7F1FA05492046FFF705
:10118800F5FA002010BD00BF680500248C0F00246C
:101198008C0700247047FEE7FEE7FEE7FEE770478E
:1011A80070470000014803F0B7BB00BF641A002471
:1011B800014803F0B1BB00BFDC1A0024014803F06A
:1011C800ABBB00BF541B0024014803F0A5BB00BF04
:1011D800CC1B0024014803F09FBB00BF441C002423
:1011E800014803F099BB00BFBC1C0024014803F070
:1011F80093BB00BF341D0024014802F089BF00BF23
:10120800E4210024014802F083BF00BF80220024AB
:10121800FFF7F2BFFFF7F6BF014803F037BD00BF85
:101228001C230024014803F05EBF00BF1C230024D8
:10123800014804F0F5B800BF78230024014804F001
:10124800EFB800BF00240024014806F033B900BFFE
:1012580010260024014806F02DB900BF902600246E
:10126800014806F027B900BF10270024014802F002
:1012780093BA00BF98170024014803F04DBB00BF84
:10128800AC1D0024014806F015B900BF90270024C2
:10129800014803F041BB00BF241E0024014803F0AD
:1012A8003BBB00BF9C1E0024014803F035BB00BFB8
:1012B800141F0024014803F02FBB00BF8C1F00241B
:1012C800014803F029BB00BF04200024014803F0B3
:1012D80023BB00BF7C200024014803F01DBB00BFD6
:1012E800F4200024014803F017BB00BF6C21002440
:1012F800014806F0DFB800BF10280024014806F0B6
:10130800D9B800BF90280024014806F0D3B800BF20
:1013180010290024014804F083B800BF8824002461
:10132800014807F00BBA00BF68010024FFF7F8BFB7
:10133800FFF7F6BF02F0A8B90268034B9A4201D141
:1013480003F066BF704700BF000401400A4B1A69EA
:10135800D2072DE9004808D5084AD2E9000110F162
:10136800010B41F1000CC2E900BC1A6922F001022C
:101378001A61BDE8008800BF000C004090170024E7
:1013880010B501468AB000222C2007F06FFF2C20F0
:1013980007F09EFF164B694602A8D3F8F020154CBB
:1013A80042F00202C3F8F020D3F8F03003F0020351
:1013B8000193019B04F042FD04F02AFD0E4B40000E
:1013C800236040F2E733E3600C4BB0FBF3F00138E5
:1013D8000023606020462361A36002F0F5FA20B97B
:1013E800204602F0CAF90AB010BD0120FBE700BF91
:1013F80000440258981700240004014040420F009E
:10140800122301480B80704744010024042301483B
:101418000B8070475801002410B5044C0A46044854
:101428002146FFF78EFB204610BD00BFD8170024C9
:10143800E4FB000810B5044C0A4604482146FFF7AF
:1014480080FB204610BD00BFD8170024F7FB00081A
:1014580010B5044C0A4604482146FFF772FB2046A3
:1014680010BD00BFD81700240DFC000810B5044CAF
:101478000A4604482146FFF764FB204610BD00BF1A
:10148800D8170024CBFB000810B5044C0A460448C2
:101498002146FFF756FB204610BD00BFD817002491
:1014A800D6FB0008224B07B5D3F8F420032042F0FE
:1014B8000202C3F8F420D3F8F43003F002030193D6
:1014C800019B07F0C1FE00226FF00B00114607F0E8
:1014D800CDFE00226FF00A00114607F0C7FE002279
:1014E8006FF00900114607F0C1FE00226FF00400FA
:1014F800114607F0BBFE00226FF00300114607F00B
:10150800B5FE00220F216FF0010007F0AFFE0022A8
:101518000F214FF0FF3007F0A9FE002205217D20A2
:1015280007F0A4FE7D2003B05DF804EB07F0D0BE01
:10153800004402580268134B9A4230B587B01ED156
:10154800114B0325002401A9D3F8D8200F4842F0F5
:101558002002C3F8D820D3F8D830039403F020032E
:101568000093009B0223CDE9013507F07DFD1C2384
:1015780001A907480394CDE9013507F075FD07B0C7
:1015880030BD00BF00200240004402580008025845
:1015980000000258026882B0094B9A420DD1A3F5A7
:1015A8000063D3F8E02042F40022C3F8E020D3F827
:1015B800E03003F400230193019B02B0704700BFA1
:1015C800004C02580368354A934210B588B031D1AF
:1015D800334A13680133012B13600CD1314BD3F814
:1015E800EC2042F48072C3F8EC20D3F8EC3003F41A
:1015F80080730193019B03230222002403A92A4834
:10160800CDE90332CDE905430923079307F02CFD03
:1016180022460521132007F029FE132007F058FE63
:1016280015202246052107F021FE152007F050FE5F
:1016380008B010BD1D4A9342FAD1194A1368013304
:10164800012B13600CD1174BD3F8EC2042F48072B5
:10165800C3F8EC20D3F8EC3003F480730293029BB8
:101668004FF440520223002403A91148CDE9032373
:101678000323CDE905430923079307F0F5FC224628
:101688000521142007F0F2FD142007F021FE162092
:101698002246052107F0EAFD1620C7E700A0004012
:1016A800D819002400440258000C025800A4004035
:1016B800000402580268394B9A4270B5064686B053
:1016C80069D14FF4407012230025354CCDE9010350
:1016D80003233448CDE9035304230DEB0301059399
:1016E80007F0C2FC402007F0A7FC802007F0A4FC0C
:1016F8002D4BDFF8C4C02046D3F8E82042F400128E
:10170800C3F8E820D3F8E83003F400130093009BF3
:101718002123C4E900C34FF48063C4E90255C4E936
:101728000435C4E90655C4E9085502F0D1FF20B1D3
:1017380040F289111D4801F059FA1D4A2223F46329
:101748004021A6631B4CC4E9002300234FF48062A8
:101758002046C4E90213C4E90423C4E90633C4E9F2
:10176800083302F0B5FF20B140F29B110F4801F099
:101778003DFA00220D21B4631F20A66307F076FD11
:101788001F2007F0A5FD202000220D2107F06EFD87
:10179800202007F09DFD06B070BD00BF005400403A
:1017A800641A002400040258004402581AFC000875
:1017B80028000240DC1A002410000240026882B0AF
:1017C800084B9A420CD1084BD3F8DC2042F0400277
:1017D800C3F8DC20D3F8DC3003F040030193019B0D
:1017E80002B07047001802480044025803683A4A99
:1017F800934210B588B024D1384BE020002403A9C7
:10180800D3F8F02042F48052C3F8F020D3F8F03037
:1018180003F480530093009B0223CDE903030323C1
:101828002F48CDE905430523079307F01DFC232026
:101838002246082107F01AFD232007F049FD08B0C9
:1018480010BD284A934222D1244B4FF4444100242E
:101858002548D3F8E82042F48042C3F8E820D3F8BA
:10186800E83003F480430193019B0223CDE903137D
:10187800032303A9CDE905430523079307F0F4FBE8
:1018880024202246082107F0F1FC2420D5E7174A36
:101898009342D4D1114B002403A91548D3F8F02062
:1018A80042F40052C3F8F0206422D3F8F03003F475
:1018B80000530293029B0223CDE903230323CDE9BE
:1018C80005430523079307F0CFFB54202246082140
:1018D80007F0CCFC5420B0E7003001400044025827
:1018E800000002580038004000040258003401404B
:1018F80000100258036884B0224A93420ED1224B4A
:10190800D3F8F02042F00102C3F8F020D3F8F03009
:1019180003F001030093009B04B07047B3F1804FBC
:101928000DD1194BD3F8E82042F00102C3F8E820A2
:10193800D3F8E83003F001030193019BECE7134A65
:1019480093420DD1104BD3F8E82042F00202C3F8BD
:10195800E820D3F8E83003F002030293029BDBE7A8
:101968000B4A9342D8D1084BD3F8E82042F004023E
:10197800C3F8E820D3F8E83003F004030393039B8B
:10198800CAE700BF000001400044025800040040BC
:10199800000800407FB50368204A934210D1022313
:1019A8004FF4D44C01A91E48CDE901C30023CDE969
:1019B80003330123059307F057FB07B05DF804FBD9
:1019C800B3F1804F0CD14FF40040022301A9CDE9B7
:1019D800010300231348CDE9033301230593EAE704
:1019E800114A93420AD10121022300220F4805938C
:1019F800CDE90113CDE9032201A9DCE70C4A9342A2
:101A0800DBD14FF4C042022301A90A480593CDE96E
:101A180001230022CDE90322CDE700BF00000140E9
:101A28000010025800000258000400400004025848
:101A380000080040000C02580368BD4A9342F0B504
:101A480004468DB058D1BB4B0026BB4807A9D3F834
:101A5800E820BA4D42F40022B94FC3F8E820022228
:101A6800D3F8E83003F400230093009B0323CDE967
:101A78000732CDE9096308230B9307F0F5FA3F23F2
:101A88002846C5E900734FF48063C5E90266C5E9D5
:101A98000436C5E90666C5E9086602F019FE20B1F4
:101AA80040F2B631A74801F0A1F84023A64865677F
:101AB8004FF48062AC63A54DC5E90003AB60002319
:101AC80028466B62C5E90332C5E90533C5E9073322
:101AD80002F0FEFD20B14FF472719A4801F086F8C9
:101AE8003420256700220621AC6307F0BFFB3420B1
:101AF80007F0EEFB0DB0F0BD954A93425AD18D4BDD
:101B0800002607A99348D3F8E820934D42F0804275
:101B1800C3F8E8204FF4C072D3F8E83003F08043EC
:101B28000193019B0223CDE907230323CDE9096330
:101B380007230B9307F098FA4F2388492846C5E9ED
:101B480000134FF48063C5E90266C5E90436C5E9A8
:101B58000666C5E9086602F0BBFD20B140F2F53122
:101B6800784801F043F850236567AC634FF0400EA6
:101B78007B4D4FF48062DFF814C22846C5E900C3E4
:101B88000023C5E902E3C5E90423C5E90633C5E92D
:101B9800083302F09DFD20B140F20741694801F089
:101BA80025F85220256700220621AC6307F05EFB6A
:101BB80052209DE76B4A934256D15E4B00266548FA
:101BC80007A9D3F8E820684D42F00042674FC3F8F0
:101BD800E8200222D3F8E83003F000430293029B86
:101BE8000323CDE90732CDE9096308230B9307F0F6
:101BF8003BFA51232846C5E900734FF48063C5E9D1
:101C08000266C5E90436C5E90666C5E9086602F054
:101C18005FFD20B140F234414A4800F0E7FF5448E4
:101C2800522365674026AC634FF48062514DC5E985
:101C3800000300232846C5E90263C5E90423C5E972
:101C48000633C5E9083302F043FD20B140F24641AE
:101C58003C4800F0CBFF5320256700220621AC63E7
:101C680007F004FB532043E7434A934240F0928035
:101C7800304B002607A94148D3F8F020404D42F0E8
:101C88001002C3F8F020C022D3F8F03003F010039C
:101C98000393039B0223CDE907230323CDE90963BB
:101CA80007230B9307F0E0F9102007F0C5F920206F
:101CB80007F0C2F9292333492846C5E900134FF430
:101CC8008063C5E90266C5E90436C5E90666C5E963
:101CD800086602F0FDFC20B140F27741194800F097
:101CE80085FF2A236567AC634FF0400E264D4FF4FD
:101CF8008062DFF89CC02846C5E900C30023C5E917
:101D080002E3C5E90423C5E90633C5E9083302F04F
:101D1800DFFC20B140F289410A4800F067FF252026
:101D2800256700220621AC6307F0A0FA2520DFE62C
:101D3800004C00400044025800000258541B002484
:101D4800400002401AFC000858000240CC1B002446
:101D58000078004000100258441C00247000024023
:101D6800BC1C0024007C0040341D0024A00002405C
:101D7800B8000240AC1D00240010014000040258C5
:101D8800241E0024100402409C1E002488000240E7
:101D980028040240944A934261D1944B00260227BA
:101DA8000725D3F8E82007A9914842F40032C3F880
:101DB800E820D3F8E8300B9503F400330493049B30
:101DC8001823CDE90966CDE9073707F04DF96023F7
:101DD800874807A90996CDE907370323854FCDE939
:101DE8000A3507F041F9844D2B232846C5E90073CD
:101DF8004FF48063C5E90266C5E90436C5E906669D
:101E0800C5E9086602F064FC20B140F2BF417B4896
:101E180000F0ECFE2C236567AC634020784D4FF44E
:101E280080627849C5E900130023C5E90203284602
:101E3800C5E90423C5E90633C5E9083302F048FCBF
:101E480020B140F2D1416D4800F0D0FE2620256730
:101E580000220621AC6307F009FA262048E66A4A00
:101E6800934265D1614B022700260725D3F8E82065
:101E780007A95F4842F48022C3F8E820D3F8E83085
:101E88000B9503F480230593059B4FF44073CDE92C
:101E980007370323CDE9096307F0E6F84FF4C05389
:101EA800534807A90B95594DCDE90737CDE9096680
:101EB80007F0DAF82D23564A2846C5E900234FF4DF
:101EC8008063C5E90266C5E90436C5E90666C5E961
:101ED800086602F0FDFB20B140F20751474800F0C8
:101EE80085FE2E236567AC634FF0400E494D4FF4D5
:101EF8008062DFF83CC12846C5E900C30023C5E974
:101F080002E3C5E90423C5E90633C5E9083302F04D
:101F1800DFFB20B140F21951384800F067FE272056
:101F2800256700220621AC6307F0A0F92720DFE52A
:101F3800394A93427FF4DEAD2C4BC020002607A916
:101F4800D3F8F020354D42F02002354FC3F8F02089
:101F5800D3F8F03003F020030693069B0223CDE963
:101F6800070303232F48CDE9096307230B9307F0E1
:101F78007BF847232846C5E900734FF48063C5E919
:101F88000266C5E90436C5E90666C5E9086602F0D1
:101F98009FFB20B140F24651184800F027FE224A24
:101FA800482365674021AC63204DC5E90023002321
:101FB8004FF480622846C5E90213C5E90423C5E940
:101FC8000633C5E9083302F083FB20B14FF4AB6157
:101FD8000A4800F00BFE4720256700220621AC6363
:101FE80007F044F9472083E50044004000440258C4
:101FF800000C025840040240141F00241AFC000878
:102008008C1F00245804024000480040042000248B
:10201800700402407C20002400140140F4200024B5
:10202800A004024000080258B80402406C210024B1
:10203800880402403F4BDA6822F0040230B5DA60C7
:10204800CDB0002201929A6942F440429A619A699D
:1020580002F440420192019A9A699204FCD5364AE8
:1020680029240C250AA8936A23F0030343F00203EA
:1020780093624FF48033CDE90A4301230224CDE96A
:102088000F334FF4C8731994CDE915530023042571
:10209800CDE91344CDE91744CDE91A531C9303F055
:1020A800CDFA00B1FEE73F210323049008204FF446
:1020B8008062CDE9021340232146CDE9050302A839
:1020C8000793CDE9082303F09BFD00B1FEE71B4A07
:1020D8001823259030904590CDE91D23F023CDE9B4
:1020E8001F344FF0805338934FF44013CDE9230049
:1020F800CDE93400CDE93A00CDE93C001DA83E9376
:10210800CDE9214403F078FF044600B1FEE70C4B0B
:1021180018684FF47A73B0FBF3F007F0E7F8284635
:1021280007F0FAF822460F214FF0FF3007F09EF82B
:102138004DB030BD00480258004402580BB00F00A3
:102148001001002430B51B4A4FF400231A4C012516
:102158008BB02046A56184F83850C4E900230023D9
:102168000422C4E90233226123756375237784F856
:102178003930C4E90855C4E90A33C4E90C3304F01A
:1021880091FD00B1FEE70AA941F8280D204602F0AA
:102198007DF900B1FEE70E2303A9CDE90500CDE9DD
:1021A80007002046CDE9033504F0A8FE00B1FEE79C
:1021B8000BB030BD00200240DC19002408B50748E8
:1021C800074B036000238380C0E9053301230362C2
:1021D80002F0D4FF00B1FEE708BD00BF401A00249A
:1021E800004C025819480122022108B5184BC0E9D1
:1021F800052203600023C0E90922C0E90B2204225A
:1022080003744374C0E90233C0E90711C0E90D3310
:10221800C0E90F33C0E91123C0E91323C0E915232E
:10222800C0E91733C0E91932C0E91B33C0E91D33CF
:10223800C0E91F33C0E92133C0E92333C0F898301F
:1022480001F082FD00B1FEE708BD00BFE4210024D3
:1022580000A0004019480122022108B5184BC0E926
:10226800052203600023C0E90922C0E90B220422E9
:1022780003744374C0E90233C0E90711C0E90D33A0
:10228800C0E90F33C0E91123C0E91323C0E91523BE
:10229800C0E91733C0E91932C0E91B33C0E91D335F
:1022A800C0E91F33C0E92133C0E92333C0F89830AF
:1022B80001F04AFD00B1FEE708BD00BF80220024FE
:1022C80000A4004010B5104A104C114B2046C4E938
:1022D800002300230122C4E90433C4E90232C4E91B
:1022E8000633236202F081FC014600B1FEE7204676
:1022F80006F056FE014600B1FEE7204606F076FEDF
:1023080000B1FEE710BD00BF005400401C230024AC
:10231800FFECC01008B505480023054AC0E90023B2
:1023280001F06AF900B1FEE708BD00BF6823002488
:102338000018024808B513484FF48003124A4FF0BA
:10234800806C4FF0E041C0E9002300230722C0E978
:102358000232C0E90A324FF08042C0E90433C0E9D2
:1023680006C1C0E90833C0E90D23C0E90F33C0E94D
:102378001133C0E91333C0E9153302F0C3FF00B1CC
:10238800FEE708BD782300240030014008B5134853
:102398004FF48003124A4FF0806C4FF0A041C0E91F
:1023A800002300230722C0E90232C0E90A324FF0B5
:1023B8008042C0E90433C0E906C1C0E90833C0E976
:1023C8000D23C0E90F33C0E91133C0E91333C0E965
:1023D800153302F097FF00B1FEE708BD0024002482
:1023E8000038004008B513484FF48003124A4FF0F4
:1023F800806C4FF0A041C0E9002300230722C0E908
:102408000232C0E90A324FF08042C0E90433C0E921
:1024180006C1C0E90833C0E90D23C0E90F33C0E99C
:102428001133C0E91333C0E9153302F06BFF00B173
:10243800FEE708BD882400240034014010B52B4C69
:1024480000232B4A96B02046A361C4E90023C4E9BF
:102458000233C4E9043301F0D1FA00B1FEE7CDE953
:102468000100039001A9204605F08CFC024600B14A
:10247800FEE760230A9004A9CDE90430CDE90600FF
:10248800CDE90800204601F0D9FB00B1FEE704229F
:1024980004A9204601F0D2FB00B1FEE7082204A9F6
:1024A800204601F0CBFB00B1FEE70C2204A9204630
:1024B80001F0C4FB00B1FEE74FF400530F901290F7
:1024C8000BA91590CDE910304FF00073CDE90B0042
:1024D800CDE90D00CDE91330204605F079FC00B1B7
:1024E800FEE72046FFF756FA16B010BD1025002467
:1024F8000000014010B5144C00234FF080428AB010
:1025080020462361A361C4E90023C4E9023301F032
:1025180075FA00B1FEE7009069460290204605F082
:1025280031FC024600B1FEE760230590079003A93D
:10253800CDE90330204601F081FB00B1FEE72046DB
:10254800FFF728FA0AB010BD5025002410B5144C26
:102558000023144A8AB020462361A361C4E90023FA
:10256800C4E9023301F04AFA00B1FEE70090694677
:102578000290204605F006FC00B1FEE760230590B6
:102588000790082203A9CDE90330204601F056FB45
:1025980000B1FEE72046FFF7FDF90AB010BD00BF05
:1025A800902500240004004010B5174C0023174A5A
:1025B8008AB020462361A361C4E90023C4E9023339
:1025C80001F01CFA00B1FEE700906946029020462F
:1025D80005F0D8FB00B1FEE76023059007900422C0
:1025E80003A9CDE90330204601F028FB00B1FEE73E
:1025F800082203A9204601F021FB00B1FEE720468E
:10260800FFF7C8F90AB010BDD02500240008004023
:1026180008B50C484FF4E1330B4AC0E90023002306
:102628000C22C0E9023303614363C0E90523C0E912
:102638000733C0E90933C0E90B3305F070FB00B17B
:10264800FEE708BD90270024004C004008B50C4860
:102658004FF4E1330B4AC0E9002300230C22C0E900
:10266800023303614363C0E90523C0E90733C0E9C6
:102678000933C0E90B3305F052FB00B1FEE708BD92
:10268800902800240078004008B50C484FF4E13346
:102698000B4AC0E9002300230C22C0E9023303617E
:1026A8004363C0E90523C0E90733C0E90933C0E93A
:1026B8000B3305F034FB00B1FEE708BD10290024F8
:1026C800007C004008B50C484FF4E1330B4AC0E9E0
:1026D800002300230C22C0E9023303614363C0E9ED
:1026E8000523C0E90733C0E90933C0E90B3305F016
:1026F80016FB00B1FEE708BD1026002400100140BB
:1027080008B50C484FF4E1330B4AC0E90023002315
:102718000C22C0E9023303614363C0E90523C0E921
:102728000733C0E90933C0E90B3305F0F8FA00B103
:10273800FEE708BD902600240044004008B50C4878
:102748004FF4E1330B4AC0E9002300230C22C0E90F
:10275800023303614363C0E90523C0E90733C0E9D5
:102768000933C0E90B3305F0DAFA00B1FEE708BD1A
:10277800102700240048004008B50D484FF4E13305
:102788000C4A4FF08051C0E9002300230C22C0E915
:10279800021303614363C0E90523C0E90733C0E9B5
:1027A8000933C0E90B3305F0BAFA00B1FEE708BDFA
:1027B80010280024001401404E4B07B5D3F8D82048
:1027C8000E210B2042F00102C3F8D820D3F8D820FC
:1027D80002F001020092009AD3F8D82042F00202D7
:1027E800C3F8D8200022D3F8D83003F002030193AD
:1027F800019B06F03BFD0B2006F06AFD00220E212E
:102808000C2006F033FD0C2006F062FD00220E219C
:102818000D2006F02BFD0D2006F05AFD0E2100229A
:10282800084606F023FD0E2006F052FD00220E2178
:102838000F2006F01BFD0F2006F04AFD00220E2196
:10284800102006F013FD102006F042FD00220E2194
:10285800112006F00BFD112006F03AFD00220E2192
:102868002F2006F003FD2F2006F032FD00220E2156
:10287800382006F0FBFC382006F02AFD00220E2145
:10288800392006F0F3FC392006F022FD00220E2143
:102898003A2006F0EBFC3A2006F01AFD00220E2141
:1028A8003B2006F0E3FC3B2006F012FD00220E213F
:1028B8003C2006F0DBFC3C2006F00AFD00220E213D
:1028C800442006F0D3FC442006F002FD00220E212D
:1028D800452006F0CBFC452006F0FAFC00220E212C
:1028E800462006F0C3FC462003B05DF804EB06F072
:1028F800EFBC00BF00440258614B48F21841D3F8BE
:10290800E02042F010022DE9F047C3F8E0208CB037
:10291800D3F8E02000245B4F012502F01002DFF815
:102928006C813846DFF868A10192019AD3F8E0205B
:10293800554E42F00402DFF85C91C3F8E020D3F86A
:10294800E02002F004020292029AD3F8E02042F05A
:102958008002C3F8E020D3F8E02002F0800203925E
:10296800039AD3F8E02042F00102C3F8E020D3F83C
:10297800E02002F001020492049AD3F8E02042F029
:102988000202C3F8E020D3F8E02002F00202059228
:10299800059AD3F8E02042F00802C3F8E0200022AC
:1029A800D3F8E03003F008030693069B06F046FCD4
:1029B800404600224AF22D0106F040FC5046002213
:1029C80040F63A0106F03AFC304600224FF4906196
:1029D80006F034FC002248464FF4A06106F02EFCB5
:1029E80048F2184307A93846CDE90735CDE9094427
:1029F80006F03AFB4AF22D0307A94046CDE9073510
:102A0800CDE9094406F030FB44F2100307A940461B
:102A18000994CDE9073406F027FB40F63A0307A9E5
:102A28005046CDE90735CDE9094406F01DFB4FF4C2
:102A3800805307A938460994CDE9073406F014FBFA
:102A48004FF4906307A93046CDE90735CDE909442D
:102A580006F00AFB4FF4004307A930460994CDE974
:102A6800073406F001FB4FF4A06307A94846CDE9F7
:102A78000735CDE9094406F0F7FA0CB0BDE8F08750
:102A88000044025800100258000C0258000802586E
:102A98000004025800000258F8B5BFF34F8FBFF387
:102AA8006F8F4E4B0021C3F85012BFF34F8FBFF307
:102AB8006F8F5A6942F400325A61BFF34F8FBFF3E8
:102AC8006F8FC3F88410BFF34F8FD3F8802043F67D
:102AD800E076C2F3C904C2F34E32A507520102EAF6
:102AE800060C284621464CEA0007013900F140400F
:102AF800C3F860724F1CF6D1203A12F1200FEED1C4
:102B0800BFF34F8F5A6942F480325A61BFF34F8F37
:102B1800BFF36F8F02F06CFBFFF78CFAFFF7ECFE48
:102B2800002208212E4806F089FB012220212D4889
:102B380006F084FB012204212A4806F07FFB0122CB
:102B48004FF40041274806F079FB012280212648EE
:102B580006F074FB01224FF48061234806F06EFBF7
:102B680001224FF400411E4806F068FB1D4801226F
:102B78004FF4005106F062FBFFF71EFEFFF7E2FA82
:102B8800FFF71CFBFFF72EFBFFF764FBFFF79AFB31
:102B9800FFF7C0FBFFF7CEFBFFF7F8FBFFF722FCC0
:102BA800FFF74CFCFFF7A6FCFFF7D0FCFFF7FCFC97
:102BB800FFF72EFDFFF74AFDFFF766FDFFF782FDE1
:102BC800FFF79EFDFFF7BAFDFFF7D6FDFEF79EFA69
:102BD8004FF47A70BDE8F84002F02CBB00ED00E03D
:102BE8000010025800080258000C0258FEE780291D
:102BF80001D90BF063BE09F04FBD000010B50420E9
:102C08000AF0BBFC04460BF02FFE024A024920469C
:102C18000AF05AFD49E80008D4FE00080000000048
:102C280007B50D4801A900F004FDDDED017A9FED1F
:102C3800066BB8EEE77B87EE060B9FED057B80EE13
:102C4800070B03B05DF804FB00000000C0FFDF4085
:102C58000000000080842E416823002490ED040BBE
:102C680090ED026B90ED007B20EE000B10B5A6EE08
:102C7800060B0446A7EE070B0AF0D1FAB7EE007B65
:102C880087EE000B94ED007B27EE007B84ED007B44
:102C980094ED027B27EE007B84ED027B94ED047BB0
:102CA80027EE007B84ED047B10BD10B52DED048B61
:102CB8000446FFF7B5FFB0EE409BFFF7B1FFB0EE5B
:102CC800408BFFF7ADFF204684ED009B84ED028B1F
:102CD80084ED040BFFF7C2FF2046BDEC048B10BD4A
:102CE800D0E9003210B5D31A04460848DB08584327
:102CF8006FF0170320F0604003FB002018B1A168B3
:102D0800091AFFF774FF204610BD00BFABAAAA0A34
:102D180030B500240025C0E90045C0E90245C0E9F6
:102D2800044530BD30B5D1E90045C0E90045D1E9D9
:102D38000245C0E90245D1E90445C0E9044530BD72
:102D48002DE9F74FD0E90163054688469E4208D031
:102D58003046FFF7E7FF6B6818336B6003B0BDE8D8
:102D6800F08F04682E4B341BE0102E4C4443012C8A
:102D7800204638BF012024182CBF012200229C4283
:102D880003D812B914B927460CE01C461820604332
:102D9800802801901DD90BF06DFD0746019C182075
:102DA800B4FBF0F4D5F800901E48A6EB0906F6101F
:102DB80046433846B246BAF1000F00F1180B0CDD55
:102DC80049460AF1FF3AFFF7ADFF09F118095846DD
:102DD800F1E701A809F05CFCDFE7182326EAE670B2
:102DE800414600FB033603FB0070FFF79BFF0E48CC
:102DF8003E44D5E90032D31ADB0858436FF0170375
:102E080020F0604003FB002018B1A968091AFFF7F9
:102E1800EEFE182000FB0474C5E90076AC609DE75F
:102E2800AAAAAA0AABAAAAAAABAAAA0A096892EDF0
:102E3800023B91ED041B91ED022B92ED046B23EE06
:102E4800415B91ED004B92ED007BA2EE065B24EE18
:102E5800466BA1EE076B27EE427B80ED005BA3EE8D
:102E6800047B80ED026B80ED047B70470368C9002A
:102E780010680B44084492ED026B90ED007B27EE3E
:102E8800067B83ED007B7047C90013680B44084438
:102E980093ED007B92ED026B27EE067B80ED007BC5
:102EA800704738B505460C460A460121FFF7ECFF86
:102EB800224602212846FFF7E7FF38BDC9001369FB
:102EC80010B55C18936808440B4492ED066B93EDBB
:102ED800007B94ED005B936AA5EE067B194491EDA7
:102EE800006B37EE067B80ED007B10BD38B50546DC
:102EF8000C460A460121FFF7E1FF22460221284637
:102F0800FFF7DCFF38BDC900136810B55C185368BB
:102F18000844194494ED007B91ED006B37EE067B75
:102F280080ED007B10BD38B505460C460A460121E8
:102F3800FFF7E9FF224602212846FFF7E4FF38BDE4
:102F4800C90013680B44084493ED007B92ED026BB3
:102F580027EE067B80ED007B704738B505460C46AA
:102F68000A460021FFF7ECFF224628460121FFF719
:102F7800E7FF224602212846FFF7E2FF38BDC900D5
:102F8800136810B55C1853680844194494ED007B25
:102F980091ED006B37EE467B80ED007B10BDC900DC
:102FA800136810B55C1853680844194494ED007B05
:102FB80091ED006B37EE467B80ED007B10BDC900BC
:102FC80013680B44084493ED007B92ED026B27EEE7
:102FD800067B80ED007B704738B505460C460A46EF
:102FE8000121FFF7ECFF224628460221FFF7E7FF01
:102FF800224628460321FFF7E2FF224628460421FD
:10300800FFF7DDFF224628460521FFF7D8FF2246B5
:1030180028460621FFF7D3FF224628460721FFF757
:10302800CEFF224608212846FFF7C9FF38BD30B534
:1030380002EB42045D681B680C4405EBC10105EB1B
:10304800C205E40020441C4491ED005B95ED066B3D
:1030580094ED007BA5EE067B80ED007B30BD000083
:103068002DE9F04F984BDFF86CB2984E2DED088B98
:10307800F1B09FED8FBB9FED908B9FED91AB0593CA
:10308800012306934FF49673069A002540AF5343E5
:103098004FF00008DFF840920793CDE90D55CDE9D0
:1030A8000F55CDE911553846FFF7FFFD52AC38AA48
:1030B800002138972046CDE93A89FFF7E5FE38A97F
:1030C8002046FFF7EEFE21460DA8FFF739FE013531
:1030D800079B9D42E7D11AA8FFF7E7FD2046FFF7B7
:1030E800E4FD20A83A4600214094CDE94289FFF743
:1030F800CBFE394620A8FFF7D4FEFFF791FD20EE5E
:103108000B9B1AA952A8FFF70DFEB6EE000B8DED2A
:10311800589B29EE009BB0EE490B09F031FD26AD16
:1031280038AB2B60AB6004238DED3E0BEB60B0EE4B
:10313800490B09F0F1FF3A460021284640944FF028
:1031480018088DED420BFFF791FE3A4601212846FB
:10315800FFF78CFE3A46002702212846FFF786FE35
:103168000D990DF1C80938AC4FF0040A08FB071196
:103178002846FFF7D7FD48462A4652A95294549448
:10318800CDF854A1FFF752FE16944A4616A99DEDB4
:10319800327BCDE9184A40AC37EE077B20468DEDEF
:1031A800327B9DED347B9DED3E9B37EE077B8DEDAD
:1031B800347B9DED367B37EE077B8DED367BFFF755
:1031C80035FECDF858910DF1B00952AA0021549559
:1031D80048465C948DED589BFFF770FE484652A90F
:1031E800FFF784FE2046FFF760FD00224FF0804382
:1031F800002132A8CDF850915694CDE9582320AB40
:1032080052AA5C93FFF75AFE52A932A8FFF76EFE46
:1032180032A910A8FFF794FD0137079B9F429FD161
:103228002CAC00254FF018092046DDE910378DED4C
:10323800408BFF1AFB10264F8DED428B5F438DEDBF
:10324800448B8DED468B8DED488B8DED4A8B8DED46
:103258004C8B8DED4E8B8DED508BFFF759FD32A8C1
:10326800FFF756FDBD4239DA09FB05F8109B52AA53
:10327800002143442046529401355393FFF743FEFF
:1032880052A92046FFF74FFE0D9B52AA0021434446
:103298000DF1C80840465393CDF84881FFF733FE37
:1032A80052A94046FFF73FFEDCE700BFAFF30080BE
:1032B800182D4454FB2119400000000000000000B4
:1032C8008DEDB5A0F7C6B03E682B0024102B002466
:1032D800ABAAAAAAB82A00240000244007EE907AD4
:1032E800B7EE006B2CA832ADB8EEE77B52A94FF0D1
:1032F80000084FF0180A529086EE079B8DED549BFC
:10330800FFF72BFE52A9284652958DED549BFFF7E7
:1033180024FEB84566DA0AFB08F1109B0D9A0DF5F4
:10332800A4790B4440AC0A44484616932CAB0021C0
:1033380008F101081793CDE9132513AAFFF71FFE1B
:1033480013AA01214846FFF71AFE13AA022148468C
:10335800FFF715FE16AA002158A8FFF720FE16AAA7
:10336800012158A8FFF71BFE16AA022158A8FFF74B
:1033780016FE002226AB20461146CDE92649FFF766
:1033880056FE26AB002201212046FFF750FE26AB51
:10339800002202212046FFF74AFE26AB0122002127
:1033A8002046FFF744FE012226AB20461146FFF7D0
:1033B8003EFE26AB012202212046FFF738FE26AB4F
:1033C800022200212046FFF732FE26AB022201210D
:1033D8002046FFF72CFE022226AB20461146FFF7B7
:1033E80026FE96E740AC52AA002100272046DFF8C7
:1033F8006C81DFF86C91DFF86CA152948DED549BD1
:10340800FFF7DDFD52A92046FFF7E6FD0AAD0021D2
:103418004B4622460846CDE9008508F033FE059B59
:1034280095ED006B93ED007B0993B5EEC06B37EE1D
:10343800067BF1EE10FA83ED007B13D40137079B6E
:103448009F42E3D10027DFF82081DFF82091DFF8E1
:1034580014A100214B4622460846CDE9008508F014
:1034680003F803E050460CF059FBE7E795ED006BD5
:103478009BED007BCDF820B0B5EEC06B37EE067B38
:10348800F1EE10FA8BED007B12D40137079B9F42B7
:10349800DFD10027DFF8D8A0DFF8C8902D4B002136
:1034A8000195224600930846534606F079FF03E04B
:1034B80050460CF033FBE8E795ED006B96ED007B8A
:1034C800B046B5EEC06B37EE067BF1EE10FA86ED2E
:1034D800007B22D40137079B9F42DFD1059B0BF16C
:1034E800080B0699083608331B4898ED007B0593AE
:1034F800099B27EE0A7B93ED006B089B8DED027B01
:1035080093ED007B27EE0A7B8DED007B26EE0A7B90
:1035180053EC172B0CF002FB03E048460CF0FEFAC4
:10352800D8E710A8FFF7DCFB0DA8FFF7D9FB069B2F
:1035380001330B2B06937FF4A5AD71B0BDEC088B5E
:10354800BDE8F08F10A8FFF7CBFB0DA8FFF7C8FB6D
:103558000AF00BF8802A002479FC0008982A002435
:10356800202A002471FC0008682A002490290024DD
:10357800D829002408B5FFF78FFA00F005F8FFF7FF
:103588006FFD002008BD0000194B07B5D3F8E820EF
:10359800322022F00802C3F8E820D3F8E82042F0ED
:1035A8000802C3F8E8200022D3F8E830114603F0F7
:1035B80008030193019B05F059FE322005F088FEAF
:1035C8000C4B80221A8000225A605A624FF0FF3258
:1035D800DA62C7221A8501225A611A8842F001026A
:1035E8001A80DA6842F00102DA6003B05DF804FB81
:1035F80000440258000C004010B50446B8B1437AA4
:1036080003F0FF0213B90272FEF7D8F8226802230A
:10361800616800206372136823F020030B43136072
:10362800136843F0040313600123637210BD012083
:10363800FCE7F8B5037A04460E46012B21D0012099
:10364800637A834220720FD10223637201F0ECFD8A
:1036580007462268556815F0010508D093680020D0
:10366800E3603360012363720023237208E001F0F2
:10367800DBFDC01B0228ECD90423032025726372EA
:10368800F8BD0220FCE7704708B5084BD3F80C01D9
:10369800D3F8002122EA0002C3F80021D3F804215C
:1036A8000243C3F80421FFF7EEFF08BD0064025887
:1036B800036A23F4803330B50362036A4468426DB9
:1036C80023F400330D6822F070022A438D6843EA20
:1036D80005430F4DA8420FD005F58065A8420BD0D1
:1036E80005F57055A84207D005F58065A84203D0B6
:1036F80005F58065A84204D124F480344D6944EA74
:103708000524446042654A688265036230BD00BF93
:1037180000000140036A23F4801330B50362036A92
:103728004468426D23F400130D6822F4E04242EA33
:1037380005228D6843EA05530E4DA8420FD005F5C2
:103748008065A8420BD005F57055A84207D005F54D
:103758008065A84203D005F58065A84204D124F409
:1037680000344D6944EA8524446042654A68C2656C
:10377800036230BD00000140704703680020DA682A
:1037880042F00102DA601A8842F001021A8070479A
:10379800704770477047704703681A69910710B5FA
:1037A80004460FD5DA6892070CD56FF002021A6149
:1037B80001229B690277990700F08580FFF7E9FFEE
:1037C8000023237723681A69520710D5DA6850074F
:1037D8000DD56FF0040220461A6102229B692277F8
:1037E80013F4407F75D0FFF7D4FF002323772368B5
:1037F8001A6911070FD5DA6812070CD56FF008029D
:1038080020461A610422DB6922779B0767D0FFF7FD
:10381800C0FF0023237723681A69D00610D5DA6819
:10382800D1060DD56FF0100220461A610822DB6917
:10383800227713F4407F58D0FFF7ABFF002323779C
:1038480023681A69D20708D5DA68D00705D56FF05A
:10385800010220461A61FDF76FFD23681A691106F7
:1038680008D5DA68120605D56FF0800220461A617D
:1038780004F0F1FA23681A69D00508D5DA68110648
:1038880005D56FF0800220461A6104F0E4FA236837
:103898001A69520608D5DA68500605D56FF0400255
:1038A80020461A61FFF777FF23681A69910622D527
:1038B800DA6892061FD56FF0200220461A61BDE82B
:1038C800104004F0C7BAFFF763FF2046FFF762FF16
:1038D80076E7FFF75DFF2046FFF75CFF85E7FFF718
:1038E80057FF2046FFF756FF93E7FFF751FF2046A3
:1038F800FFF750FFA2E710BD314A038890429BB200
:1039080012D0B0F1804F0FD0A2F57C4290420BD07C
:1039180002F58062904207D002F58062904203D09F
:1039280002F57842904219D14A6823F07003134394
:10393800234A90421DD0B0F1804F1AD0A2F57C42A4
:10394800904216D002F58062904212D002F5806251
:1039580090420ED002F5784290420AD0194A90421D
:1039680007D002F58062904203D002F5806290424F
:1039780003D123F44073CA6813434A6923F08003D0
:1039880013439BB203808B68C3620B8803850C4B7F
:1039980098420FD003F5806398420BD003F570531B
:1039A800984207D003F58063984203D003F58063FB
:1039B800984201D10B8A038601234361704700BFF7
:1039C800000001400040014010B50446A0B190F845
:1039D8003D3003F0FF021BB980F83C20FFF7CCFE16
:1039E80002232068211D84F83D30FFF785FF01235D
:1039F800002084F83D3010BD0120FCE710B50446D6
:103A0800A0B190F83D3003F0FF021BB980F83C20CC
:103A1800FDF770FF02232068211D84F83D30FFF771
:103A28006BFF0123002084F83D3010BD0120FCE726
:103A3800036A23F0010370B50362036A446882696C
:103A480023F002030D6822F4803222F073022A4325
:103A58008D682B431B4DA8420FD005F58065A84201
:103A68000BD005F57055A84207D005F58065A8422A
:103A780003D005F58065A8421ED1CD6823F0080360
:103A88002B43104DA84223F004030FD005F58065A1
:103A9800A8420BD005F57055A84207D005F58065FA
:103AA800A84203D005F58065A84205D124F44075E5
:103AB800D1E9054634432C43446082614A68426335
:103AC800036270BD00000140036A23F0100370B563
:103AD8000362036A4468826923F020030D6822F0B8
:103AE800807222F4E64242EA05228D6843EA051311
:103AF800164DA84203D005F58065A8420DD1CD68C2
:103B080023F0800343EA0513104DA84223F0400335
:103B18000ED005F58065A8420AD00D4DA84207D001
:103B280005F58065A84203D005F58065A84206D151
:103B380024F44065D1E90546344345EA84044460E9
:103B480082614A688263036270BD00BF0000014061
:103B580000400140036A23F4807370B50362036A6E
:103B68004268C46923F400730D6824F073042C437D
:103B78008D6843EA0523164DA84203D005F58065F4
:103B8800A8420DD1CD6823F4006343EA0523104D04
:103B9800A84223F480630ED005F58065A8420AD0B8
:103BA8000C4DA84207D005F58065A84203D005F55D
:103BB8008065A84206D122F44055D1E90526324352
:103BC80045EA021242604A68C461C263036270BD7A
:103BD8000000014000400140036A23F4805330B5DF
:103BE8000362036A4468C26923F400530D6822F42F
:103BF800E64242EA05228D6843EA05330E4DA842A3
:103C08000FD005F58065A8420BD005F57055A84280
:103C180007D005F58065A84203D005F58065A84260
:103C280004D124F480444D6944EA85144460C26197
:103C38004A680264036230BD0000014038B590F85C
:103C48003C3004460220012B10D00123082A84F8B6
:103C58003D0084F83C3043D009D8FAB1042A2ED06C
:103C68000123002084F83D3084F83C0038BD102A38
:103C780047D0142A56D00C2AF2D12068FFF7ACFF9F
:103C880023680969DA6942F40062DA61DA6922F4C0
:103C98008062DA61DA6942EA012230E02068FFF7DF
:103CA800C7FE236809699A6942F008029A619A690D
:103CB80022F004029A619A690A439A61D0E720685F
:103CC800FFF702FF236809699A6942F400629A6162
:103CD8009A6922F480629A619A6942EA0122ECE7C1
:103CE8002068FFF737FF23680969DA6942F008029C
:103CF800DA61DA6922F00402DA61DA690A43DA6120
:103D0800AEE72068FFF7D4FC236809695A6D42F0D2
:103D180008025A655A6D22F004025A655A6D0A4320
:103D28005A659DE72068FFF7F5FC236809695A6D15
:103D380042F400625A655A6D22F480625A655A6DDF
:103D480042EA0122ECE700002DE9F04F044685B075
:103D5800002800F0A081C44B02689A4204BF03F512
:103D68008073436090F8943003F0FF021BB980F829
:103D78009520FDF727FC2268936923F010039361CF
:103D880001F052FA054623689A69110700F1748117
:103D98009A6942F001029A6101F046FA05462368E1
:103DA8009A69D20740F179819A6942F002029A61D0
:103DB800227C012A9A690CBF22F0400242F040029C
:103DC8009A61627C012A9A690CBF42F4804222F40B
:103DD80080429A61A27C012A9A690CBF22F480521F
:103DE80042F480529A619A69A06822F440720243B0
:103DF8009A61E268012A40F057819A6942F0040208
:103E08009A61A269B0F5407F02F1FF31E26902F1DF
:103E1800FF324FEA022242EA4162216A01F1FF3190
:103E280042EA0102616901F1FF3142EA0142DA61C5
:103E38000ED1E26A511E226B013A120142EA0122B6
:103E4800A16A01390A43616A013942EA0142DA602A
:103E5800256E2DB1D3F8C020616E0A43C3F8C02087
:103E6800D4F85CC0D4F8689015EB0C0F09D0D3F8DF
:103E7800C8207E4922F0070211F809100A43C3F846
:103E8800C820D4E9107B4FB1D3F8BC20774922F081
:103E9800070211F80B100A43C3F8BC20D4E91262D8
:103EA800029256B1D3F8BC207049029822F07002F1
:103EB800095C42EA0112C3F8BC20226D0092626DCF
:103EC8000392009A52B1D3F8BC206849039822F4AF
:103ED800E062095C42EA0122C3F8BC20624A9342CC
:103EE80004D161688A6822F003028A60D3F88420CA
:103EF800DFF88081606B02EA0802D4F83CA042EA4D
:103F08008002C3F88420D3F88410A26B21F47F01C7
:103F180000EB020E00F1805041EA024100F52C50FE
:103F2800C3F88410D3F88810800001EA080100EB78
:103F3800820241EA8E01C3F88810D3F8881021F470
:103F48007F0141EA0A41C3F888100EEB4A01D3F811
:103F5800A0E00EEA080E4EEA810EC3F8A0E0D3F8FE
:103F6800A0E02EF4FE0E4EEA074E0BFB07F7C3F84F
:103F7800A0E03944D3F8B0E001972EF0FC0E029F80
:103F88004EEA810E7743C3F8B0E03944D3F8B0E085
:103F98002EF4FE0E4EEA064E3E46039FC3F8B0E0EE
:103FA800D3F8ACE02EF0FC0E4EEA810EC3F8ACE07C
:103FB800BE46009F0EFB07FE01EB0E0BD3F8F01078
:103FC80001EA080848EA8B01C3F8F010D3F8F0803A
:103FD800A16D28F47C180BEB410B48EA0148C3F8A3
:103FE800F080D3F8C08028F0FC0848EA8B08C3F8B2
:103FF800C080D3F8C08028F47C1848EA0C480CFB31
:1040080009FCC3F8C080D3F8C08028F07C5848EA7F
:10401800056805FB09F5C3F8C080019B226702EB20
:10402800CA02E06602EB8307114B626707EB86065C
:10403800A767E66706EB8E06C4F8806006EBC10644
:10404800C4F8846006EB8C0606EB8505C4F8886026
:104058009D42C4F890503BD80022D4F89030984242
:104068003CD240F8042BF8E700A000409BFC000875
:10407800FCB500400300FFFF01F0D6F8401B0A28FA
:104088007FF681AED4F8983043F00103C4F8983035
:10409800032384F89430012026E001F0C5F8401B82
:1040A8000A287FF67CAEEDE7002A3FF4AAAE022A82
:1040B8000AD09969032A41F080019961196941F090
:1040C800100119617FF49DAE9A6942F0200297E6CB
:1040D800D4F8983043F02003C4F898300020012326
:1040E800C4F8980084F8943005B0BDE8F08F00BF9C
:1040F8007047704770477047704770477047704700
:1041080070477047704770477047704770477047EF
:10411800A24A2DE9F8431169044653694FEA8379A5
:10412800036809EA8179196D5D6D1F6D01EA05085B
:10413800596D1E6D0F40596D1D6D08F470480E4085
:10414800596D07F00F070D40196D06F0F006C90507
:1041580005F07F550FD5596DC9050CD5596D21F45A
:1041680080715965516951614FF480711965002357
:104178001361FFF7C7FF23681A6D51051CD55A6DE7
:10418800520519D55A6D22F480625A65834A5169DD
:104198005161D3F8DC10D3F8E4000140D3F8E4000F
:1041A80020EA0100C3F8E4004FF48060186500239A
:1041B80020461361FFF7A2FFB9F1000F10D0226863
:1041C8004FEA9970536D5365744B596921EA0001A0
:1041D800596100211165494618612046FFF788FF9B
:1041E800B8F1000F0FD022682046536D23EA080368
:1041F80053656A4B596959614146C2F8508000229B
:104208001A61FFF776FF77B122682046536D23EADB
:1042180007035365614B596959613946176500228F
:104228001A61FFF767FF76B122682046536D23EACB
:1042380006035365594B5969596131461665002281
:104248001A61FFF758FF23681A6D170511D55A6DC3
:1042580016050ED55A6D204622F400625A654F4A5B
:10426800516951614FF40061196500231361FFF72B
:1042780043FF23681A6D90051CD55A6D910519D511
:104288005A6D22F400725A65444A51695161D3F853
:10429800D810D3F8E0000140D3F8E00020EA01008C
:1042A800C3F8E0004FF4007018650023204613613E
:1042B800FFF723FF23681A6D120311D55A6D1703F0
:1042C8000ED55A6D204622F400225A65334A5169A8
:1042D80051614FF40021196500231361FFF70FFFA7
:1042E80023681A6DD60311D55A6DD0030ED55A6DB1
:1042F800204622F480325A65284A516951614FF4A8
:104308008031196500231361FFF7FAFE23681A6DDF
:10431800510311D55A6D52030ED55A6D204622F419
:1043280080225A651D4A516951614FF480211965EF
:1043380000231361FFF7E5FE23681A6D970314D570
:104348005A6D960311D55A6D22F400325A65134AF4
:10435800516951614FF40031196500211161D4F898
:10436800982042F08002C4F8982075B15A6D22EA6C
:1043780005025A65094A5169516100211D6511619B
:10438800D4F898201543C4F89850054A934275D13B
:1043980063689A68900771D004E000BF00A80040E5
:1043A80000A000401A6A596A11401A6A586A1F6ABE
:1043B80011F00F0102EA00085A6A1E6A07EA0207AA
:1043C8005A6A1D6A08F0300806EA02065A6A07F4B3
:1043D800C07705EA020506F4FC4605F4F02507D087
:1043E8005A6A204622EA01025A621962FFF78CFED5
:1043F800B8F1000F0AD06368414620465A6A22EA9B
:1044080008025A62C3F82080FFF77FFE63681A6AC1
:10441800510610D55A6A52060DD55A6A402022F024
:1044280040025A62D96BDA6B090C186202F03F023B
:104438002046FFF76BFE4FB16368394620465A6A3B
:1044480022EA07025A621F62FFF761FE56B16368EB
:104458005A6A22EA06025A621E62D4F898301E434B
:10446800C4F8986055B163685A6A22EA05025A622C
:104478001D62D4F898301D43C4F89850D4F8983089
:1044880013B12046FFF73FFEBDE8F88390F85020AF
:104498000346012AF0B59BB064D0012204680D6878
:1044A80080F85020304A94420CBF02F580720022F6
:1044B8000192019840B95A6D83F85000012042F0EA
:1044C80020025A651BB0F0BDA268560744D4826822
:1044D800520741D4254A25B396684F6826F44046CA
:1044E8003E439660A66806F00306012E07D12468AD
:1044F800E70704D50020002283F85020E2E784680B
:1045080004F00304012C02D10068C607F2D48968BC
:1045180090680D4320F4716121F00F010D439560FF
:10452800E8E7916821F440419160A16801F0030136
:10453800012902D12168CC07DCD4816801F003018C
:10454800012902D10168C907D4D4916821F47161A5
:1045580021F00F019160CDE75A6D012042F0200251
:104568005A65C8E70220ADE7002002400023024058
:104578000368120470B5586A19B902439A62002098
:1045880070BD9C6A00254E1E00EB1440ECB201354C
:10459800B44205DB3F31024303EB81035A60EEE787
:1045A800403403EB8404646800EB1440EEE70368CE
:1045B800002059627047012102680346C0F8F413CD
:1045C800002083F8EC03936943F000639361536D13
:1045D80043F0805343F00303536570470368012297
:1045E800C0F8F82300209A6B42F400329A639A6B61
:1045F80042F480229A6370477047000003681821CC
:10460800DAB223F47F73103A23F00303B2FBF1F21A
:104618000449032A895C88BF0433C1658365806DBA
:10462800704700BFAEFC00080168134ACBB20A44C9
:104638008C2A10D81422083BB3FBF2F303F1B052D2
:1046480002F51642920002660C4A4266012202FAFC
:1046580003F3836670471822103BB3FBF2F3084A52
:104668000A44A82A98BF083303F1805202F502428F
:1046780092000266034AE8E7F8ABFDA780580258A3
:10468800F0FBFDBF80080240027910B5541E072CCC
:104698000DD80368094919448C2909D8084B1344D3
:1046A8009B00C366074B03670123A340436710BD04
:1046B800054B13449B00C366044BF4E7F8ABFDA716
:1046C8003F960016405902583F82001040090240A8
:1046D80070B5044600F0A8FD0546002C74D021688A
:1046E800664B0B44B3F5956F00F28D80002384F878
:1046F8003430022384F835300B6823F001030B6053
:1047080021680B68D80755D40B685D4DA0691D401A
:10471800D4E9022313432269134362691343E2690C
:1047280003431343226A1343626A042A43EA0503D4
:1047380002BFD4E90B5635432B43042A0B604B695F
:1047480023F0070343EA02030CD1A26AE56A134384
:1047580045B100283AD1012A48D001D3022A01D113
:10476800EA0146D44B612046FFF748FFE26D3F233C
:104778009340836020460025FFF756FFA368226E0A
:10478800802B04BF002363606368D9B2013B1160CA
:10479800072BD4E9192151606CD8FFF775FFE36E38
:1047A8001D60D4E91C325A6000200123606584F83A
:1047B800353023E000F038FD401B0528A0D9202320
:1047C8006365032384F83530012017E0B0F5005FF6
:1047D80015D1032AC6D801A050F822F0FB470008DB
:1047E80069470008FB470008F5470008B5F1C07F96
:1047F800B8D140230120636584F8350070BD022AD2
:10480800F7D9032AABE71F4A0A448C2A30D8002379
:1048180084F83430022384F83530A3680868402BC4
:1048280020F4FF4020F0700020D0802B0CBF4FF404
:1048380080450025D4E90363DB0843EAD6036669AB
:1048480043EAD603A66943EAD603266A43EA16135F
:104858000343E069C00800F0200003432B430B60CA
:104868001423B2FBF3F29200E26583E71025E1E737
:104878004023A5E7C4E91B55656795E7F0FFFDBF31
:104888003F8010FEF8ABFDA710B528B190F8353081
:10489800022B03D08023436501200DE003681C4AE6
:1048A8001A44B2F5956F08D8042280F835201A68A2
:1048B80022F001021A60002010BD1A6822F00E02D0
:1048C8001A601A6822F001021A60026E136823F453
:1048D800807313600123C26D93400E4A5360D0E980
:1048E80019325A60C36E33B11A6822F480721A60A2
:1048F800D0E91C325A600123002480F83530036D5A
:1049080080F834400BB19847D5E71846D4E700BF84
:10491800F0FFFDBF0054025800232DE9F341944DE8
:10492800044601930368866D5A19D6F80080B2F5DB
:10493800956F00F2C3808F4AC16D176808228A40BC
:1049480012EA080F0BD01868400708D5186820F03D
:1049580004001860B260626D42F001026265864A26
:104968008A4012EA080F07D05869000604D5B260D9
:10497800626D42F002026265804A8A4012EA080FBC
:1049880007D01868800704D5B260626D42F004024F
:10499800626510228A4012EA080F0FD019680907C9
:1049A8000CD5B2601A68500341D51B68190301D4AD
:1049B800236C00E0A36C0BB120469847E06D2021E2
:1049C800814011EA080F43D023685A19B2F5956F50
:1049D8001A6894BFC2F30012C2F34002002A37D00B
:1049E800B16094F83520042A1A6828D122F01602FA
:1049F8001A605A6922F080025A61226C0AB9A26CC4
:104A08001AB11A6822F008021A603F238340B36083
:104A1800002384F83430012384F83530236D002BCB
:104A280000F0A380204602B0BDE8F04118471A689C
:104A3800D205BDD41A6822F008021A60B8E75603F6
:104A48002DD51B68180337D4636C0BB120469847E3
:104A5800636D002B00F08980636DD9071DD5042391
:104A680084F8353023681A6822F001021A604FF47E
:104A78001652B7FBF2F7019A0132BA42019202D8F4
:104A88001A68D207F7D41B680022DE0784F834209E
:104A98004CBF0323012384F83530E36CBFE71A6861
:104AA80012F4807208D1196821F0100119600123ED
:104AB80084F8342084F83530E36BC6E7304A1A446A
:104AC8008C2A52D82F4A0421C06D1568814029428A
:104AD80012D019684D070FD51A68900603D41A68C2
:104AE80022F004021A60274A0423E06D51688340CB
:104AF8000B435360236C92E71168022282400A42FA
:104B080018D01A68910715D51A6812F0200208D132
:104B1800196821F00A011960012384F8342084F807
:104B28003530184A0223E06D516883400B435360C7
:104B3800E36B74E7134908220D6882402A4214D0B7
:104B48001A68120711D51A6822F00E021A6001229B
:104B5800E36D486802FA03F303434B600023626580
:104B680084F8343084F8352097E702B0BDE8F08146
:104B7800F0FFFDBF10010024010080000400800048
:104B8800F8ABFDA70054025803689A69910701D54C
:104B980000229A629A69D20703D49A6942F0010204
:104BA8009A61704711F0010307D090F8413003F083
:104BB8002803282B0CBF4223F2238A0709D590F833
:104BC800412002F02802282A0CBF43F0440343F096
:104BD800F4034A0701684FF000000A6848BF43F031
:104BE800B80322EA03030B60704710B50446002897
:104BF8004AD090F8413003F0FF021BB980F84020FA
:104C0800FCF758FD242384F8413023681A6822F001
:104C180001021A60626822F070621A619A6822F4CE
:104C280000429A60D4E90221012924D142F40042C9
:104C38009A605A68002042F0007242F400425A60BA
:104C4800DA6822F40042DA60D4E904210A43A1694F
:104C580042EA0122DA60D4E907210A431A601A6895
:104C680042F001021A602023606484F84130206316
:104C780084F8420010BD42F4044202299A60D8D157
:104C88004FF400625A60D4E70120F3E70268436BEF
:104C98009169126803B1184770477047704738B573
:104CA8000025044680F8425090F84130292B0DD158
:104CB8002823012180F8413021230363FFF772FF85
:104CC80084F840502046FFF7E8FF38BD90F841309F
:104CD8002A2BFAD12823022180F8413022230363AA
:104CE800FFF760FF84F840502046FFF7D7FFECE756
:104CF80070477047164B202210B5C3620023044644
:104D08000363436380F8412080F842304B0711D594
:104D180003685A6A436A591C41621A70038D4BB181
:104D2800013B0385438D013B9BB24385436C43F0B4
:104D38000403436407212046FFF734FF2368102249
:104D48002046DA61002384F84030FFF7D2FF10BD17
:104D58000000FFFF704770470023344A10B580F801
:104D680042300446C2624385436C1943416490F85B
:104D78004130282B07D090F84130292B03D090F8E8
:104D880041302A2B21D103212046FFF70BFF28238E
:104D980084F8413000232363254B63632368196833
:104DA8001A6811F480411DD022F48042A06B1A6069
:104DB800204B0365002384F84030FFF765FD70B38E
:104DC800A06B036DBDE8104018470721FFF7EAFE06
:104DD80094F84130602B02D0202384F8413000231E
:104DE8002363DAE712F400420DD01A68E06B22F46C
:104DF80000421A600F4B036584F84010FFF744FD2A
:104E080068B1E06BDDE794F84130602B08D12023CE
:104E180084F84020204684F84130FFF79CFF10BDFD
:104E280084F840202046FFF795FFF8E70000FFFFD1
:104E3800414F00085151000838B520220368044644
:104E48000D46DA6108220721DA61FFF7ABFE236815
:104E580020465A6842F400425A605A6822F0FF72AB
:104E680022F48B3222F4FF7222F001025A60FFF71B
:104E78008BFE22681368580402D41368190409D5F4
:104E880094F84130212B0CBFA36BE36B1B685B6864
:104E98009BB26385638D9BB21BB1636C43F00403C3
:104EA80063646B0710D5636A526A591C61621A7091
:104EB800238D4BB1013B2385638D013B9BB26385F9
:104EC800636C43F00403636400232363636384F81F
:104ED8004230636C6BB1616C2046FFF73DFF94F87C
:104EE8004130282B13D129462046BDE83840FFF72A
:104EF80001BFE26A12F5803F0AD00E4A204684F8C4
:104F08004030E262202284F84120FFF7F2FE38BDEB
:104F180094F84120204684F84030222A4FF020029D
:104F280084F8412002D1FFF7B9FEF0E7FFF7B5FE9C
:104F3800EDE700BF0000FFFF2DE9F84390F840308F
:104F480004460E461746012B00F0CB800123CD0600
:104F580080F840303ED5D0063CD5638D9BB28BBBE4
:104F6800E36AB3F1007F03D0E36AB3F1007F14D1A1
:104F780094F84130282B10D131462046FFF7BAFE6D
:104F8800B20605D5BB0603D531462046FFF754FFC8
:104F9800002084F84000BDE8F883E26A236812F52F
:104FA800803F0CD094F84120292A08D110222046AD
:104FB800DA61FFF7E9FD2046FFF771FEE0E710220E
:104FC800DA61DDE723681022DA61636C43F00403D9
:104FD8006364D5E771071AD57A0718D5638D9BB234
:104FE80063B123685A6A636A591C61621A70238D17
:104FF800013B2385638D013B9BB26385638D9BB227
:10500800002BBDD1E36A13F5803FB9D0D3E733074E
:1050180046D53D0744D594F84120236802F028027C
:10502800282A37D19A69E1689D69C2F300480229A4
:105038009A684FEA1545D3F80C9005F0FE0520D183
:10504800C2F3090285EAD21515F006050FD1A16C45
:105058000131A164A16C022992D10821A564D9610A
:1050680084F8405041462046FFF742FE88E7042175
:105078002046FFF797FD002309F0FE0284F8403030
:10508800F0E704212046FFF78DFD00232A4684F827
:105098004030E7E70822DA61002384F840306FE700
:1050A800B0077FF56DAFB9077FF56AAF638D9BB227
:1050B8006BB1636A5A1C626222681B789362638DC3
:1050C800013B9BB26385238D013B238558E7E36A47
:1050D800B3F1807F3FF46FAFE36A002B3FF46BAF0F
:1050E8004EE7022057E7036899691A6810B4CC059F
:1050F80008D5140606D5446C44F0010444644FF402
:105108008074DC614C0508D5140606D5446C44F05F
:10511800080444644FF48064DC61890508D51206EC
:1051280006D5426C42F0020242644FF40072DA6122
:10513800436C13F00B0F04D0416C5DF8044BFFF780
:105148000BBE5DF8044B7047806B026808B5536866
:1051580043F4004353600023826B1365C26B1365ED
:1051680090F84130602B05D1202380F84130FFF7BB
:10517800F2FD08BDFFF7EEFDFBE7000010B50446A1
:1051880008B9012010BD437F03F0FF0213B902776D
:10519800FCF700FA022363772379E3B92368134AFB
:1051A8005A619A6822F018029A6062792368D2B923
:1051B8004FF0FF321A6100209A68616922F060029C
:1051C8000A43A1699A609A6822F080020A439A60A9
:1051D80001236377D6E7D4E90212204603F0BCFE28
:1051E8000028E2D0CDE72269E4E700BFB71DC1047B
:1051F80010B5032004F028F80020FCF7C1F8044695
:1052080018B9FCF74FF9204610BD0124FBE7000050
:10521800034A044B11681B780B441360704700BFA6
:10522800B82B00245C010024014B1868704700BFAC
:10523800B82B002438B50446FFF7F6FF0546631C73
:105248001EBF044B1B78E418FFF7EEFF401BA0427B
:10525800FAD338BD5C010024036859699A6942F0A1
:1052680008029A619A6942F010029A611A6822F05B
:1052780001021A601A6922F45A7222F003021A61B2
:105288009A6822F440429A6090F88120042A0BD050
:105298008A0609D5D0F8842042F08002C0F884201C
:1052A8009A6942F020029A6190F88120032A0BD073
:1052B8004A0609D5D0F8842042F00402C0F88420B8
:1052C8009A6942F040029A618A0509D5D0F884208B
:1052D80042F00102C0F884209A6942F400729A618F
:1052E800CA0509D5D0F8842042F00802C0F8842005
:1052F8009A6942F480729A610023A0F86230A0F89B
:105308006A30704770B5044608B9012070BD02685C
:105318000023404983628A42C36809D0A1F57841D5
:105328008A4205D001F580618A4201D00F2BECD862
:10533800E16B08334909DB0801FB033335498A422D
:1053480066D0A1F578418A4262D001F580618A422F
:105358005ED0082BD9D894F8813003F0FF0223B926
:1053680084F880202046FCF741FA0223226861680D
:1053780084F881301368A56B23F001031360A369D7
:10538800B3F1806F07D1B1F5800F04D11DB9106852
:1053980040F480501060A66A0B43E0692B43304309
:1053A800E66B3043E66830439060606B0343606AA5
:1053B80003432069034360690343206A0343E06CA5
:1053C8000343A0680343A06C0343A06D0343D36069
:1053D80059B9936823F4C05343F400639360936806
:1053E80023F4C06343F480639360136D23F00103D7
:1053F80013654B0205D5D368616D23F000430B4359
:10540800D36000200123C4F8840084F881307DE74C
:10541800102B9FE700300140704770477047704776
:1054280003682DE9F047D3F810A00446D3F8149088
:10543800D3F808800AEA090590F8816005F0410769
:10544800F6B2012F0AD1036F984705F02203022B09
:1054580006D1636F2046BDE8F04718470027F4E7F8
:10546800FFB92F0763D5236818F4404F9A6942F0B3
:1054780008029A619A6942F010029A619A6942F4A4
:1054880000629A611A6922F008021A610ED0042E8D
:1054980009D0A26FD2694AB1032E04D12046FFF782
:1054A800BBFFBDE8F087E26FD2698ABB9B6813F443
:1054B800404F1BD02046FFF7CFFE012384F88130F0
:1054C800D4F8843023B32046FFF7A9FFE9E7E16861
:1054D80022680F29636E0FD9126B43F8042B636699
:1054E800B4F86A30013B9BB2A4F86A30B4F86A3069
:1054F8009BB2002BEBD1DDE7072903D9128E23F8E5
:10550800022BECE792F830201A70636E0133E6E75D
:10551800052E03D12046FFF781FFC2E7042E03D1F1
:105528002046FFF77AFFBCE7032EBAD1B6E71AF098
:10553800080F08D019F4006F05D02268936943F466
:1055480000639361ADE715F4587FAAD068060AD5C1
:10555800D4F88430226843F00403C4F88430936993
:1055680043F040039361A9050AD5D4F88430226832
:1055780043F00103C4F88430936943F400739361E2
:10558800EA050AD5D4F88430226843F00803C4F841
:105598008430936943F480739361AB060AD5D4F8D9
:1055A8008430226843F08003C4F88430936943F060
:1055B80020039361D4F88430002B3FF472AF236842
:1055C80018F4404F1A6822F001021A601A6922F48E
:1055D8005A7222F003021A6113D09A68E06F22F41B
:1055E80040429A6018B1094B0365FFF74DF9A06F67
:1055F80000283FF456AF054BBDE8F0470365FFF7B9
:1056080043B9012384F881305DE700BF19560008CB
:1056180008B5806B0023A0F86A30A0F86230012337
:1056280080F88130FFF7FBFE08BD0000024AD3680E
:1056380043F08073D360704700480258F8B5036898
:105648000546D8075CD42B68990700F1AF802B6812
:10565800D90625D5AC4B1A6902F03802082A0BD0B6
:105668001A6902F03802182A40F0F7809B6A03F0A2
:105678000303012B40F0F180A34B1A68D20502D531
:10568800EA69802A53D158684FF0F84292FAA2F298
:10569800B2FA82F12A6A8A4020F0F8410A435A6035
:1056A8002B68190700F10B812B689A0600F13081ED
:1056B8002B685C071ED5954C236843F480732360E0
:1056C800FFF7B2FD06462368DA0540F14681AB686C
:1056D8008D4C012B40F04881236F43F00103236771
:1056E80041F28834FFF7A0FD874E0746336F9B07CA
:1056F80040F160816A6A002A40F0638100202FE04F
:10570800814B1A6902F03802102A09D01A6902F08E
:105718003802182A0DD19B6A03F00303022B08D123
:10572800794B1B689A038ED56B68002B8BD10120AF
:1057380016E06B68744CB3F5803F12D1236843F4CC
:1057480080332360FFF770FD6F4C064623689B0388
:105758003FF579AFFFF768FD801B6428F6D9032071
:10576800F8BDA3B9236823F480332360236823F4A6
:1057780080232360FFF758FD064623689F037FF5C3
:1057880062AFFFF751FD801B6428F6D9E7E7B3F550
:10579800A02F236803D143F480232360CEE723F4AA
:1057A80080332360236823F48023CAE7564BE968D3
:1057B8001A6912F0380F07D01A6902F03802182A4D
:1057C80028D19B6A9C0725D14F4A1368580701D5F1
:1057D8000029ACD013684C4C23F019030B43136019
:1057E800FFF722FD064623685B070DD561684FF475
:1057F8007C3393FAA3F3B3FA83F22B69934021F431
:105808007C321343636022E7FFF70EFD801B0228FA
:10581800E9D9A4E73C4C236879B123F019030B4379
:105828002360FFF701FD064623685F07DED4FFF714
:10583800FBFC801B0228F7D991E723F001032360C2
:10584800FFF7F2FC0646236858077FF500AFFFF71D
:10585800EBFC801B0228F6D981E7EB692A4CEBB1F7
:10586800236843F080032360FFF7DEFC06462368C5
:10587800DF050DD561684FF0F84393FAA3F3B3FA47
:1058880083F22B6A934021F0F8421343636007E7E1
:10589800FFF7CAFC801B0228E9D960E7236823F0D8
:1058A80080032360FFF7C0FC06462368D8057FF510
:1058B800F7AEFFF7B9FC801B0228F6D94FE76B69F2
:1058C800114C83B1636F43F001036367FFF7ACFCCE
:1058D8000646636F9B073FF5E7AEFFF7A5FC801B05
:1058E8000228F6D93BE7636F23F001036367FFF7EC
:1058F8009BFC0646636F9F077FF5D6AEFFF794FCC7
:10590800801B0228F6D92AE70044025800480258AA
:10591800AB696E4C83B1236843F480532360FFF76F
:1059280083FC0646236898043FF5C2AEFFF77CFC6B
:10593800801B0228F6D912E7236823F480532360DA
:10594800FFF772FC0646236899047FF5B1AEFFF7AE
:105958006BFC801B0228F6D901E7FFF765FC801B6A
:1059680064287FF6B0AEFAE6B3B9236F41F2883700
:1059780023F001032367236F23F004032367FFF752
:1059880053FC0646236F98077FF5B4AEFFF74CFC2F
:10599800801BB842F6D9E2E6052B236F03D143F00A
:1059A8000403236798E623F001032367236F23F09A
:1059B800040394E6FFF738FCC01BA0427FF696AEBE
:1059C800CDE6424C236903F03803182B3FF4AFAE01
:1059D8002368022A23F08073236069D1FFF724FC2F
:1059E8000646236899015DD4A36AAA6A23F47C73E6
:1059F80023F003031343EA6A43EA0213A3626B6BBF
:105A0800AA6B013B013A5B0212049BB202F4FE024C
:105A180013432A6B013AC2F308021343EA6B013AB3
:105A2800120602F0FE42134323634FF6F873626BCB
:105A380093FAA3F3B3FA83F122F47F42AB6C22F01A
:105A4800F8028B4013436363E36A2A6C23F00C0368
:105A58001343E362E36A6A6C23F002031343E362CD
:105A6800E36A43F48033E362E36A43F40033E362B6
:105A7800E36A43F48023E362E36A43F00103E362E9
:105A8800236843F080732360FFF7CEFB0F4C054675
:105A980023689A013FF532AEFFF7C6FB401B022888
:105AA800F6D95CE6FFF7C0FB801B022899D956E6B9
:105AB800FFF7BAFB054623689B017FF51FAEFFF78A
:105AC800B3FB401B0228F6D949E600BF0044025840
